{
  "_format": "hh-sol-artifact-1",
  "contractName": "TicketNft",
  "sourceName": "contracts/TicketNft.sol",
  "abi": [
    {
      "inputs": [
        {
          "internalType": "string",
          "name": "name_",
          "type": "string"
        },
        {
          "internalType": "string",
          "name": "symbol_",
          "type": "string"
        },
        {
          "internalType": "string",
          "name": "imageUri_",
          "type": "string"
        }
      ],
      "stateMutability": "nonpayable",
      "type": "constructor"
    },
    {
      "inputs": [
        {
          "internalType": "address",
          "name": "sender",
          "type": "address"
        },
        {
          "internalType": "uint256",
          "name": "tokenId",
          "type": "uint256"
        },
        {
          "internalType": "address",
          "name": "owner",
          "type": "address"
        }
      ],
      "name": "ERC721IncorrectOwner",
      "type": "error"
    },
    {
      "inputs": [
        {
          "internalType": "address",
          "name": "operator",
          "type": "address"
        },
        {
          "internalType": "uint256",
          "name": "tokenId",
          "type": "uint256"
        }
      ],
      "name": "ERC721InsufficientApproval",
      "type": "error"
    },
    {
      "inputs": [
        {
          "internalType": "address",
          "name": "approver",
          "type": "address"
        }
      ],
      "name": "ERC721InvalidApprover",
      "type": "error"
    },
    {
      "inputs": [
        {
          "internalType": "address",
          "name": "operator",
          "type": "address"
        }
      ],
      "name": "ERC721InvalidOperator",
      "type": "error"
    },
    {
      "inputs": [
        {
          "internalType": "address",
          "name": "owner",
          "type": "address"
        }
      ],
      "name": "ERC721InvalidOwner",
      "type": "error"
    },
    {
      "inputs": [
        {
          "internalType": "address",
          "name": "receiver",
          "type": "address"
        }
      ],
      "name": "ERC721InvalidReceiver",
      "type": "error"
    },
    {
      "inputs": [
        {
          "internalType": "address",
          "name": "sender",
          "type": "address"
        }
      ],
      "name": "ERC721InvalidSender",
      "type": "error"
    },
    {
      "inputs": [
        {
          "internalType": "uint256",
          "name": "tokenId",
          "type": "uint256"
        }
      ],
      "name": "ERC721NonexistentToken",
      "type": "error"
    },
    {
      "inputs": [],
      "name": "InvalidImageUri",
      "type": "error"
    },
    {
      "inputs": [
        {
          "internalType": "address",
          "name": "owner",
          "type": "address"
        }
      ],
      "name": "OwnableInvalidOwner",
      "type": "error"
    },
    {
      "inputs": [
        {
          "internalType": "address",
          "name": "account",
          "type": "address"
        }
      ],
      "name": "OwnableUnauthorizedAccount",
      "type": "error"
    },
    {
      "anonymous": false,
      "inputs": [
        {
          "indexed": true,
          "internalType": "address",
          "name": "owner",
          "type": "address"
        },
        {
          "indexed": true,
          "internalType": "address",
          "name": "approved",
          "type": "address"
        },
        {
          "indexed": true,
          "internalType": "uint256",
          "name": "tokenId",
          "type": "uint256"
        }
      ],
      "name": "Approval",
      "type": "event"
    },
    {
      "anonymous": false,
      "inputs": [
        {
          "indexed": true,
          "internalType": "address",
          "name": "owner",
          "type": "address"
        },
        {
          "indexed": true,
          "internalType": "address",
          "name": "operator",
          "type": "address"
        },
        {
          "indexed": false,
          "internalType": "bool",
          "name": "approved",
          "type": "bool"
        }
      ],
      "name": "ApprovalForAll",
      "type": "event"
    },
    {
      "anonymous": false,
      "inputs": [
        {
          "indexed": false,
          "internalType": "string",
          "name": "newImageUri",
          "type": "string"
        }
      ],
      "name": "ImageUriUpdated",
      "type": "event"
    },
    {
      "anonymous": false,
      "inputs": [
        {
          "indexed": true,
          "internalType": "address",
          "name": "oldMinter",
          "type": "address"
        },
        {
          "indexed": true,
          "internalType": "address",
          "name": "newMinter",
          "type": "address"
        }
      ],
      "name": "MinterChanged",
      "type": "event"
    },
    {
      "anonymous": false,
      "inputs": [
        {
          "indexed": true,
          "internalType": "address",
          "name": "previousOwner",
          "type": "address"
        },
        {
          "indexed": true,
          "internalType": "address",
          "name": "newOwner",
          "type": "address"
        }
      ],
      "name": "OwnershipTransferred",
      "type": "event"
    },
    {
      "anonymous": false,
      "inputs": [
        {
          "indexed": true,
          "internalType": "address",
          "name": "to",
          "type": "address"
        },
        {
          "indexed": true,
          "internalType": "uint256",
          "name": "tokenId",
          "type": "uint256"
        },
        {
          "indexed": true,
          "internalType": "uint256",
          "name": "ticketId",
          "type": "uint256"
        }
      ],
      "name": "TicketMinted",
      "type": "event"
    },
    {
      "anonymous": false,
      "inputs": [
        {
          "indexed": true,
          "internalType": "address",
          "name": "from",
          "type": "address"
        },
        {
          "indexed": true,
          "internalType": "address",
          "name": "to",
          "type": "address"
        },
        {
          "indexed": true,
          "internalType": "uint256",
          "name": "tokenId",
          "type": "uint256"
        }
      ],
      "name": "Transfer",
      "type": "event"
    },
    {
      "inputs": [
        {
          "internalType": "address",
          "name": "to",
          "type": "address"
        },
        {
          "internalType": "uint256",
          "name": "tokenId",
          "type": "uint256"
        }
      ],
      "name": "approve",
      "outputs": [],
      "stateMutability": "nonpayable",
      "type": "function"
    },
    {
      "inputs": [
        {
          "internalType": "address",
          "name": "owner",
          "type": "address"
        }
      ],
      "name": "balanceOf",
      "outputs": [
        {
          "internalType": "uint256",
          "name": "",
          "type": "uint256"
        }
      ],
      "stateMutability": "view",
      "type": "function"
    },
    {
      "inputs": [
        {
          "internalType": "uint256",
          "name": "tokenId",
          "type": "uint256"
        }
      ],
      "name": "getApproved",
      "outputs": [
        {
          "internalType": "address",
          "name": "",
          "type": "address"
        }
      ],
      "stateMutability": "view",
      "type": "function"
    },
    {
      "inputs": [
        {
          "internalType": "uint256",
          "name": "tokenId",
          "type": "uint256"
        }
      ],
      "name": "getTicketMetadata",
      "outputs": [
        {
          "components": [
            {
              "internalType": "uint256",
              "name": "ticketId",
              "type": "uint256"
            },
            {
              "internalType": "string",
              "name": "eventName",
              "type": "string"
            },
            {
              "internalType": "string",
              "name": "description",
              "type": "string"
            },
            {
              "internalType": "uint256",
              "name": "eventTimestamp",
              "type": "uint256"
            },
            {
              "internalType": "string",
              "name": "location",
              "type": "string"
            }
          ],
          "internalType": "struct TicketNft.TicketMetadata",
          "name": "",
          "type": "tuple"
        }
      ],
      "stateMutability": "view",
      "type": "function"
    },
    {
      "inputs": [],
      "name": "imageUri",
      "outputs": [
        {
          "internalType": "string",
          "name": "",
          "type": "string"
        }
      ],
      "stateMutability": "view",
      "type": "function"
    },
    {
      "inputs": [
        {
          "internalType": "address",
          "name": "owner",
          "type": "address"
        },
        {
          "internalType": "address",
          "name": "operator",
          "type": "address"
        }
      ],
      "name": "isApprovedForAll",
      "outputs": [
        {
          "internalType": "bool",
          "name": "",
          "type": "bool"
        }
      ],
      "stateMutability": "view",
      "type": "function"
    },
    {
      "inputs": [
        {
          "internalType": "address",
          "name": "to",
          "type": "address"
        },
        {
          "internalType": "uint256",
          "name": "ticketId",
          "type": "uint256"
        },
        {
          "internalType": "string",
          "name": "eventName",
          "type": "string"
        },
        {
          "internalType": "string",
          "name": "description",
          "type": "string"
        },
        {
          "internalType": "uint256",
          "name": "eventTimestamp",
          "type": "uint256"
        },
        {
          "internalType": "string",
          "name": "location",
          "type": "string"
        }
      ],
      "name": "mintForRegistrant",
      "outputs": [
        {
          "internalType": "uint256",
          "name": "newTokenId",
          "type": "uint256"
        }
      ],
      "stateMutability": "nonpayable",
      "type": "function"
    },
    {
      "inputs": [],
      "name": "minter",
      "outputs": [
        {
          "internalType": "address",
          "name": "",
          "type": "address"
        }
      ],
      "stateMutability": "view",
      "type": "function"
    },
    {
      "inputs": [],
      "name": "name",
      "outputs": [
        {
          "internalType": "string",
          "name": "",
          "type": "string"
        }
      ],
      "stateMutability": "view",
      "type": "function"
    },
    {
      "inputs": [],
      "name": "owner",
      "outputs": [
        {
          "internalType": "address",
          "name": "",
          "type": "address"
        }
      ],
      "stateMutability": "view",
      "type": "function"
    },
    {
      "inputs": [
        {
          "internalType": "uint256",
          "name": "tokenId",
          "type": "uint256"
        }
      ],
      "name": "ownerOf",
      "outputs": [
        {
          "internalType": "address",
          "name": "",
          "type": "address"
        }
      ],
      "stateMutability": "view",
      "type": "function"
    },
    {
      "inputs": [],
      "name": "renounceOwnership",
      "outputs": [],
      "stateMutability": "nonpayable",
      "type": "function"
    },
    {
      "inputs": [
        {
          "internalType": "address",
          "name": "from",
          "type": "address"
        },
        {
          "internalType": "address",
          "name": "to",
          "type": "address"
        },
        {
          "internalType": "uint256",
          "name": "tokenId",
          "type": "uint256"
        }
      ],
      "name": "safeTransferFrom",
      "outputs": [],
      "stateMutability": "nonpayable",
      "type": "function"
    },
    {
      "inputs": [
        {
          "internalType": "address",
          "name": "from",
          "type": "address"
        },
        {
          "internalType": "address",
          "name": "to",
          "type": "address"
        },
        {
          "internalType": "uint256",
          "name": "tokenId",
          "type": "uint256"
        },
        {
          "internalType": "bytes",
          "name": "data",
          "type": "bytes"
        }
      ],
      "name": "safeTransferFrom",
      "outputs": [],
      "stateMutability": "nonpayable",
      "type": "function"
    },
    {
      "inputs": [
        {
          "internalType": "address",
          "name": "operator",
          "type": "address"
        },
        {
          "internalType": "bool",
          "name": "approved",
          "type": "bool"
        }
      ],
      "name": "setApprovalForAll",
      "outputs": [],
      "stateMutability": "nonpayable",
      "type": "function"
    },
    {
      "inputs": [
        {
          "internalType": "string",
          "name": "newImageUri",
          "type": "string"
        }
      ],
      "name": "setImageUri",
      "outputs": [],
      "stateMutability": "nonpayable",
      "type": "function"
    },
    {
      "inputs": [
        {
          "internalType": "address",
          "name": "newMinter",
          "type": "address"
        }
      ],
      "name": "setMinter",
      "outputs": [],
      "stateMutability": "nonpayable",
      "type": "function"
    },
    {
      "inputs": [
        {
          "internalType": "bytes4",
          "name": "interfaceId",
          "type": "bytes4"
        }
      ],
      "name": "supportsInterface",
      "outputs": [
        {
          "internalType": "bool",
          "name": "",
          "type": "bool"
        }
      ],
      "stateMutability": "view",
      "type": "function"
    },
    {
      "inputs": [],
      "name": "symbol",
      "outputs": [
        {
          "internalType": "string",
          "name": "",
          "type": "string"
        }
      ],
      "stateMutability": "view",
      "type": "function"
    },
    {
      "inputs": [
        {
          "internalType": "uint256",
          "name": "tokenId",
          "type": "uint256"
        }
      ],
      "name": "tokenURI",
      "outputs": [
        {
          "internalType": "string",
          "name": "",
          "type": "string"
        }
      ],
      "stateMutability": "view",
      "type": "function"
    },
    {
      "inputs": [
        {
          "internalType": "address",
          "name": "from",
          "type": "address"
        },
        {
          "internalType": "address",
          "name": "to",
          "type": "address"
        },
        {
          "internalType": "uint256",
          "name": "tokenId",
          "type": "uint256"
        }
      ],
      "name": "transferFrom",
      "outputs": [],
      "stateMutability": "nonpayable",
      "type": "function"
    },
    {
      "inputs": [
        {
          "internalType": "address",
          "name": "newOwner",
          "type": "address"
        }
      ],
      "name": "transferOwnership",
      "outputs": [],
      "stateMutability": "nonpayable",
      "type": "function"
    }
  ],
  "bytecode": "0x608060405234620004f85762002505803803806200001d81620004fd565b9283398101606082820312620004f85781516001600160401b039190828111620004f857816200004f91850162000523565b9060209384810151848111620004f857826200006d91830162000523565b916040820151858111620004f85762000087920162000523565b825191848311620004e2576000908154936001958686811c96168015620004d7575b89871014620003e1578190601f9687811162000484575b5089908783116001146200042057859262000414575b5050600019600383901b1c191690861b1782555b805190868211620004005785548681811c91168015620003f5575b89821014620003e1579081868493116200038e575b5088908683116001146200032a5784926200031e575b5050600019600383901b1c191690851b1784555b3315620003065760068054336001600160a01b03198216811790925560405191906001600160a01b03167f8be0079c531659141344cd1fd0a4f28419497f9722a3daafe3b4186f6b6457e08480a3825115620002f757508151948511620002e3576009548481811c91168015620002d8575b87821014620002c4578381116200027b575b50859285116001146200021257939450849291908362000206575b50501b916000199060031b1c1916176009555b604051611f6f9081620005968239f35b015192503880620001e3565b6009815285812093958591601f198316915b8883831062000260575050501062000246575b505050811b01600955620001f6565b015160001960f88460031b161c1916905538808062000237565b85870151885590960195948501948793509081019062000224565b600982528682208480880160051c820192898910620002ba575b0160051c019085905b828110620002ae575050620001c8565b8381550185906200029e565b9250819262000295565b634e487b7160e01b82526022600452602482fd5b90607f1690620001b6565b634e487b7160e01b81526041600452602490fd5b6314ad733d60e31b8152600490fd5b60249060405190631e4fbdf760e01b82526004820152fd5b01519050388062000130565b8785528985208894509190601f198416865b8c8282106200037757505084116200035d575b505050811b01845562000144565b015160001960f88460031b161c191690553880806200034f565b8385015186558b979095019493840193016200033c565b9091508684528884208680850160051c8201928b8610620003d7575b918991869594930160051c01915b828110620003c85750506200011a565b868155859450899101620003b8565b92508192620003aa565b634e487b7160e01b84526022600452602484fd5b90607f169062000105565b634e487b7160e01b83526041600452602483fd5b015190503880620000d6565b8580528a86208994509190601f198416875b8d8282106200046d575050841162000453575b505050811b018255620000ea565b015160001960f88460031b161c1916905538808062000445565b8385015186558c9790950194938401930162000432565b9091508480528985208780850160051c8201928c8610620004cd575b918a91869594930160051c01915b828110620004be575050620000c0565b8781558594508a9101620004ae565b92508192620004a0565b95607f1695620000a9565b634e487b7160e01b600052604160045260246000fd5b600080fd5b6040519190601f01601f191682016001600160401b03811183821017620004e257604052565b919080601f84011215620004f85782516001600160401b038111620004e25760209062000559601f8201601f19168301620004fd565b92818452828287010111620004f85760005b8181106200058157508260009394955001015290565b85810183015184820184015282016200056b56fe608080604052600436101561001357600080fd5b60003560e01c90816301ffc9a7146116545750806306fdde03146115b15780630754617214611588578063081812fc1461154a578063095ea7b3146114635780630bf82da4146113cf57806323b872dd146113b857806342842e0e1461138a5780636352211e1461135a57806370a0823114611301578063715018a6146112a45780638da5cb5b1461127b57806395d89b411461119c578063a22cb465146110f7578063b88d4fde1461108a578063ba0ae43c14610f8c578063c87b56dd14610b8d578063d9e5ea4d14610994578063da16b5481461026e578063e985e9c514610218578063f2fde38b1461018a5763fca3b5aa1461011157600080fd5b346101855760203660031901126101855761012a611707565b61013261190f565b6001600160a01b0390811690610149821515611c4a565b816008549182167f3b0007eb941cf645526cbb3a4fdaecda9d28ce4843167d9263b536a1f1edc0f6600080a36001600160a01b03191617600855005b600080fd5b34610185576020366003190112610185576101a3611707565b6101ab61190f565b6001600160a01b039081169081156101ff57600654826bffffffffffffffffffffffff60a01b821617600655167f8be0079c531659141344cd1fd0a4f28419497f9722a3daafe3b4186f6b6457e0600080a3005b604051631e4fbdf760e01b815260006004820152602490fd5b3461018557604036600319011261018557610231611707565b61023961171d565b9060018060a01b03809116600052600560205260406000209116600052602052602060ff604060002054166040519015158152f35b346101855760c036600319011261018557610287611707565b6044356001600160401b038111610185576102a69036906004016118f1565b6064356001600160401b038111610185576102c59036906004016118f1565b9160a4356001600160401b038111610185576102e59036906004016118f1565b6008546001600160a01b0393919291908416330361094f57838216159261030c8415611c4a565b60016007540193846007556040519061032482611788565b80600083526109365785600052600260205285876040600020541680151592836108ff575b156108e3575b81600052600260205260406000208988166bffffffffffffffffffffffff60a01b825416179055888716907fddf252ad1be2c89b69c2b068fc378daa952ba7f163c4a11628f55a4df523b3ef600080a46108ca57833b61079e575b50604051956103b88761176d565b60243587526020870192835260408701526084356060870152608086015282600052600a60205260406000209085518255518051906001600160401b0382116105f157819061040a6001850154611733565b601f811161074b575b50602090601f83116001146106d9576000926106ce575b50508160011b916000199060031b1c19161760018201555b60408501518051906001600160401b0382116105f1576104656002840154611733565b601f8111610687575b50602090601f831160011461061257918060809492600494600092610607575b50508160011b916000199060031b1c19161760028201555b60608701516003820155019401519384516001600160401b0381116105f1576104cf8254611733565b601f81116105a9575b50806020968790601f83116001146105455760009261053a575b50508160011b916000199060031b1c19161790555b816040519360243592167fcbea9c23945e351434f7ae5b1a435091cc278dd9dd0eba4c04203674014ca7d7600080a48152f35b0151905087806104f2565b60008581528981209350601f198516905b8181106105925750908460019594939210610579575b505050811b019055610507565b015160001960f88460031b161c1916905587808061056c565b92938a600181928786015181550195019301610556565b826000526020600020601f830160051c810191602084106105e7575b601f0160051c01905b8181106105db57506104d8565b600081556001016105ce565b90915081906105c5565b634e487b7160e01b600052604160045260246000fd5b01519050898061048e565b906002840160005260206000209160005b601f198516811061066f5750926080949260019260049583601f19811610610656575b505050811b0160028201556104a6565b015160001960f88460031b161c19169055898080610646565b91926020600181928685015181550194019201610623565b600284016000526020600020601f840160051c8101602085106106c7575b601f830160051c820181106106bb57505061046e565b600081556001016106a5565b50806106a5565b01519050878061042a565b9250600184016000526020600020906000935b601f1984168510610730576001945083601f19811610610717575b505050811b016001820155610442565b015160001960f88460031b161c19169055878080610707565b818101518355602094850194600190930192909101906106ec565b909150600184016000526020600020601f840160051c810160208510610797575b90849392915b601f830160051c82018110610788575050610413565b60008155859450600101610772565b508061076c565b6040969493959651602081806107dd630a85bd0160e11b95868352336004840152600060248401528960448401526080606484015260848301906116e2565b038160008c8c165af160009181610885575b506108515787873d15610849573d916108078361189f565b9261081560405194856117a3565b83523d6000602085013e5b8251928361084257604051633250574960e11b81528284166004820152602490fd5b6020849101fd5b606091610820565b94969593946001600160e01b0319160361086b57866103aa565b604051633250574960e11b81528584166004820152602490fd5b9091506020813d6020116108c2575b816108a1602093836117a3565b8101031261018557516001600160e01b0319811681036101855790896107ef565b3d9150610894565b6040516339e3563760e11b815260006004820152602490fd5b888716600052600360205260406000206001815401905561034f565b600083815260046020526040902080546001600160a01b031916905581600052600360205260406000206000198154019055610349565b604051633250574960e11b815260006004820152602490fd5b60405162461bcd60e51b815260206004820152601f60248201527f5469636b65744e66743a2063616c6c6572206973206e6f74206d696e746572006044820152606490fd5b3461018557602080600319360112610185576001600160401b0390600435828111610185576109c79036906004016118f1565b906109d061190f565b815115610b495781519283116105f1576109eb600954611733565b601f8111610af7575b508092601f8111600114610a6657807ff7c3621393b2fb83d58a2e2c303cc58d9f6599a753edddfa633df52a07a1011494600091610a5b575b508160011b916000199060031b1c1916176009555b610a566040519282849384528301906116e2565b0390a1005b905083015185610a2d565b601f198116936009600052600080516020611f1a8339815191529460005b818110610ae057509482916001937ff7c3621393b2fb83d58a2e2c303cc58d9f6599a753edddfa633df52a07a101149710610ac7575b5050811b01600955610a42565b85015160001960f88460031b161c191690558580610aba565b858301518755600190960195918401918401610a84565b6009600052600080516020611f1a833981519152601f850160051c810191838610610b3f575b601f0160051c01905b818110610b3357506109f4565b60008155600101610b26565b9091508190610b1d565b6064906040519062461bcd60e51b82526004820152601c60248201527f5469636b65744e66743a20696d616765557269207265717569726564000000006044820152fd5b346101855760208060031936011261018557600435610bab81611ac1565b5080600052600a825260406000209060405190610bc78261176d565b825482526001610bd88185016117c4565b90858401918252610beb600286016117c4565b9460408501958652610c33610c2c610c23610c14600460038601549560608b01968752016117c4565b95608089019687525196611dd6565b97519651611dd6565b9151611dd6565b925194604051968795693d913730b6b2911d101160b11b8a880152610c61815180928c602a8b0191016116bf565b860161202360f01b602a820152610c81825180938c602c850191016116bf565b019061088b60f21b9182602c8201526f113232b9b1b934b83a34b7b7111d101160811b602e820152610cbc825180938c603e850191016116bf565b019281603e850152691134b6b0b3b2911d101160b11b604085015260009360095491610ce783611733565b92818116908115610f625750600114610f10575b50505082526e2261747472696275746573223a205b60881b60028301527f7b2274726169745f74797065223a20224576656e74204944222c202276616c7560118301526432911d101160d91b603183018190528151610e3196608c969590949093610d6e90839060368401908d016116bf565b019162089f4b60ea1b928360368201527f7b2274726169745f74797065223a20224576656e742044617465222c20227661603982015266363ab2911d101160c91b6059820152610dc7825180938c6060850191016116bf565b019160608301527f7b2274726169745f74797065223a20224c6f636174696f6e222c202276616c7560638301526083820152610e0c82518093896088850191016116bf565b0161227d60f01b6088820152615d7d60f01b608a82015203606c8101845201826117a3565b60405160608101918183106001600160401b038411176105f157610ea692604052604082527f4142434445464748494a4b4c4d4e4f505152535455565758595a616263646566848301527f6768696a6b6c6d6e6f707172737475767778797a303132333435363738392b2f6040830152611cc8565b90610ef8603d60405180947f646174613a6170706c69636174696f6e2f6a736f6e3b6261736536342c00000085830152610ee8815180928786860191016116bf565b810103601d8101855201836117a3565b610f0c6040519282849384528301906116e2565b0390f35b90919294506009600052600080516020611f1a833981519152908a6000925b858410610f4a575050505001604a019181610e31608c610cfb565b8054858501604a01528b99509201918b908201610f2f565b60ff1916604a848101919091528415159094029092019092019450839150610e319050608c610cfb565b3461018557602080600319360112610185576080600435604051610faf8161176d565b60008152606092818486819401528260408201526000838201520152610fd481611ac1565b50600052600a8252610f0c604060002060405192610ff18461176d565b81548452611001600183016117c4565b858501908152611073611016600285016117c4565b6040870190815261105f6110376004600388015497878b01988952016117c4565b9360808901948552604051998a99818b5251908a01525160a060408a015260c08901906116e2565b9051601f19948589840301908901526116e2565b9251608086015251908483030160a08501526116e2565b34610185576080366003190112610185576110a3611707565b6110ab61171d565b90604435606435926001600160401b0384116101855736602385011215610185576110e36110f59436906024816004013591016118ba565b926110ef83838361193b565b33611afc565b005b3461018557604036600319011261018557611110611707565b60243590811515809203610185576001600160a01b031690811561118357336000526005602052604060002082600052602052604060002060ff1981541660ff83161790556040519081527f17307eab39ab6107e8899845ad3d59bd9653f200f220920489ca2b5937696c3160203392a3005b604051630b61174360e31b815260048101839052602490fd5b3461018557600036600319011261018557604051600060018054906111c082611733565b8085529181811690811561125457506001146111fb575b610f0c846111e7818603826117a3565b6040519182916020835260208301906116e2565b600081815292507fb10e2d527612073b26eecdfd717e6a320cf44b4afac2b0732d9fcbe2b7fa0cf65b82841061123c5750505081016020016111e7826111d7565b80546020858701810191909152909301928101611224565b60ff191660208087019190915292151560051b850190920192506111e791508390506111d7565b34610185576000366003190112610185576006546040516001600160a01b039091168152602090f35b34610185576000366003190112610185576112bd61190f565b600680546001600160a01b031981169091556000906001600160a01b03167f8be0079c531659141344cd1fd0a4f28419497f9722a3daafe3b4186f6b6457e08280a3005b34610185576020366003190112610185576001600160a01b03611322611707565b1680156113415760005260036020526020604060002054604051908152f35b6040516322718ad960e21b815260006004820152602490fd5b34610185576020366003190112610185576020611378600435611ac1565b6040516001600160a01b039091168152f35b34610185576110f561139b3661186a565b90604051926113a984611788565b600084526110ef83838361193b565b34610185576110f56113c93661186a565b9161193b565b346101855760003660031901126101855760405160006009546113f181611733565b80845290600190818116908115611254575060011461141a57610f0c846111e7818603826117a3565b600960009081529250600080516020611f1a8339815191525b82841061144b5750505081016020016111e7826111d7565b80546020858701810191909152909301928101611433565b346101855760403660031901126101855761147c611707565b60243561148881611ac1565b33151580611537575b8061150a575b6114f2576001600160a01b039283169282918491167f8c5be1e5ebec7d5bd14f71427d1e84f3dd0314c0f7b2291e5b200ac8c7c3b925600080a4600090815260046020526040902080546001600160a01b0319169091179055005b60405163a9fbf51f60e01b8152336004820152602490fd5b5060018060a01b038116600052600560205260406000203360005260205260ff6040600020541615611497565b506001600160a01b038116331415611491565b346101855760203660031901126101855760043561156781611ac1565b506000526004602052602060018060a01b0360406000205416604051908152f35b34610185576000366003190112610185576008546040516001600160a01b039091168152602090f35b3461018557600036600319011261018557604051600080546115d281611733565b8084529060019081811690811561125457506001146115fb57610f0c846111e7818603826117a3565b600080805292507f290decd9548b62a8d60345a988386fc84ba6bc95484008f6362f93160ef3e5635b82841061163c5750505081016020016111e7826111d7565b80546020858701810191909152909301928101611624565b34610185576020366003190112610185576004359063ffffffff60e01b8216809203610185576020916380ac58cd60e01b81149081156116ae575b811561169d575b5015158152f35b6301ffc9a760e01b14905083611696565b635b5e139f60e01b8114915061168f565b60005b8381106116d25750506000910152565b81810151838201526020016116c2565b906020916116fb815180928185528580860191016116bf565b601f01601f1916010190565b600435906001600160a01b038216820361018557565b602435906001600160a01b038216820361018557565b90600182811c92168015611763575b602083101461174d57565b634e487b7160e01b600052602260045260246000fd5b91607f1691611742565b60a081019081106001600160401b038211176105f157604052565b602081019081106001600160401b038211176105f157604052565b90601f801991011681019081106001600160401b038211176105f157604052565b90604051918260008254926117d884611733565b9081845260019485811690816000146118475750600114611804575b5050611802925003836117a3565b565b9093915060005260209081600020936000915b81831061182f575050611802935082010138806117f4565b85548884018501529485019487945091830191611817565b91505061180294506020925060ff191682840152151560051b82010138806117f4565b6060906003190112610185576001600160a01b0390600435828116810361018557916024359081168103610185579060443590565b6001600160401b0381116105f157601f01601f191660200190565b9291926118c68261189f565b916118d460405193846117a3565b829481845281830111610185578281602093846000960137010152565b9080601f830112156101855781602061190c933591016118ba565b90565b6006546001600160a01b0316330361192357565b60405163118cdaa760e01b8152336004820152602490fd5b6001600160a01b03918216929091831561093657600092828452826020956002875260409684888820541696879133151580611a2b575b509060027fddf252ad1be2c89b69c2b068fc378daa952ba7f163c4a11628f55a4df523b3ef92846119f8575b858352600381528b8320805460010190558683525289812080546001600160a01b0319168517905580a416928383036119d75750505050565b6064945051926364283d7b60e01b8452600484015260248301526044820152fd5b600087815260046020526040902080546001600160a01b0319169055848352600381528b8320805460001901905561199e565b91939450915080611a80575b15611a4757859291879138611972565b878688611a64576024915190637e27328960e01b82526004820152fd5b604491519063177e802f60e01b82523360048301526024820152fd5b503387148015611aa5575b80611a375750858252600481523385898420541614611a37565b5086825260058152878220338352815260ff8883205416611a8b565b6000818152600260205260409020546001600160a01b0316908115611ae4575090565b60249060405190637e27328960e01b82526004820152fd5b90939192833b611b0e575b5050505050565b604051630a85bd0160e11b8082526001600160a01b039384166004830152958316602482015260448101919091526080606482015294921692602092918590611b5b9060848301906116e2565b039483816000978189895af1869181611c06575b50611bd0575050503d600014611bc7573d611b898161189f565b90611b9760405192836117a3565b81528093823d92013e5b82519283611bc257604051633250574960e11b815260048101849052602490fd5b019050fd5b60609250611ba1565b919450915063ffffffff60e01b1603611bee57503880808080611b07565b60249060405190633250574960e11b82526004820152fd5b9091508481813d8311611c43575b611c1e81836117a3565b81010312611c3f57516001600160e01b031981168103611c3f579038611b6f565b8680fd5b503d611c14565b15611c5157565b60405162461bcd60e51b815260206004820152601760248201527f5469636b65744e66743a207a65726f20616464726573730000000000000000006044820152606490fd5b90611ca08261189f565b611cad60405191826117a3565b8281528092611cbe601f199161189f565b0190602036910137565b805115611dc1578051600291828201809211611dab576003918290046001600160fe1b0381168103611dab57611d01908495941b611c96565b936020850193829183518401906020820192835194600085525b838110611d5a575050505052510680600114611d4757600214611d3c575090565b603d90600019015390565b50603d9081600019820153600119015390565b87600491999293949901918251600190603f9082828260121c16880101518453828282600c1c16880101518385015382828260061c1688010151888501531685010151898201530197929190611d1b565b634e487b7160e01b600052601160045260246000fd5b5050604051611dcf81611788565b6000815290565b806000917a184f03e93ff9f4daa797ed6e38ed64bf6a1f01000000000000000080821015611f0b575b506d04ee2d6d415b85acef810000000080831015611efc575b50662386f26fc1000080831015611eed575b506305f5e10080831015611ede575b5061271080831015611ecf575b506064821015611ebf575b600a80921015611eb5575b600190816021611e6d828701611c96565b95860101905b611e7f575b5050505090565b600019019083906f181899199a1a9b1b9c1cb0b131b232b360811b8282061a835304918215611eb057919082611e73565b611e78565b9160010191611e5c565b9190606460029104910191611e51565b60049193920491019138611e46565b60089193920491019138611e39565b60109193920491019138611e2a565b60209193920491019138611e18565b604093508104915038611dff56fe6e1540171b6c0c960b71a7020d9f60077f6af931a8bbf590da0223dacf75c7afa26469706673582212204b09541d8470f97ecf34d0c0f624c23f893b082e8dec100f016c0a2de765d65264736f6c63430008140033",
  "linkReferences": {},
  "deployedLinkReferences": {}
}