{
  "_format": "hh-sol-artifact-1",
  "contractName": "TicketResaleMarket",
  "sourceName": "contracts/TicketResaleMarket.sol",
  "abi": [
    {
      "inputs": [
        {
          "internalType": "address",
          "name": "eventTicketingAddress",
          "type": "address"
        },
        {
          "internalType": "address",
          "name": "ticketNftAddress",
          "type": "address"
        },
        {
          "internalType": "address payable",
          "name": "feeRecipient_",
          "type": "address"
        },
        {
          "internalType": "uint16",
          "name": "royaltyBps_",
          "type": "uint16"
        }
      ],
      "stateMutability": "nonpayable",
      "type": "constructor"
    },
    {
      "inputs": [],
      "name": "InvalidRoyalty",
      "type": "error"
    },
    {
      "inputs": [],
      "name": "NotOwner",
      "type": "error"
    },
    {
      "inputs": [],
      "name": "ReentrancyGuardReentrantCall",
      "type": "error"
    },
    {
      "inputs": [],
      "name": "ZeroAddress",
      "type": "error"
    },
    {
      "anonymous": false,
      "inputs": [
        {
          "indexed": true,
          "internalType": "address",
          "name": "newRecipient",
          "type": "address"
        }
      ],
      "name": "FeeRecipientUpdated",
      "type": "event"
    },
    {
      "anonymous": false,
      "inputs": [
        {
          "indexed": false,
          "internalType": "uint256",
          "name": "newMaxPrice",
          "type": "uint256"
        }
      ],
      "name": "MaxPriceUpdated",
      "type": "event"
    },
    {
      "anonymous": false,
      "inputs": [
        {
          "indexed": true,
          "internalType": "address",
          "name": "previousOwner",
          "type": "address"
        },
        {
          "indexed": true,
          "internalType": "address",
          "name": "newOwner",
          "type": "address"
        }
      ],
      "name": "OwnershipTransferred",
      "type": "event"
    },
    {
      "anonymous": false,
      "inputs": [
        {
          "indexed": false,
          "internalType": "uint16",
          "name": "newRoyaltyBps",
          "type": "uint16"
        }
      ],
      "name": "RoyaltyUpdated",
      "type": "event"
    },
    {
      "anonymous": false,
      "inputs": [
        {
          "indexed": true,
          "internalType": "uint256",
          "name": "tokenId",
          "type": "uint256"
        },
        {
          "indexed": true,
          "internalType": "uint256",
          "name": "ticketId",
          "type": "uint256"
        },
        {
          "indexed": true,
          "internalType": "address",
          "name": "seller",
          "type": "address"
        },
        {
          "indexed": false,
          "internalType": "uint256",
          "name": "price",
          "type": "uint256"
        }
      ],
      "name": "TicketListed",
      "type": "event"
    },
    {
      "anonymous": false,
      "inputs": [
        {
          "indexed": true,
          "internalType": "uint256",
          "name": "tokenId",
          "type": "uint256"
        },
        {
          "indexed": true,
          "internalType": "uint256",
          "name": "ticketId",
          "type": "uint256"
        },
        {
          "indexed": true,
          "internalType": "address",
          "name": "seller",
          "type": "address"
        },
        {
          "indexed": false,
          "internalType": "address",
          "name": "buyer",
          "type": "address"
        },
        {
          "indexed": false,
          "internalType": "uint256",
          "name": "price",
          "type": "uint256"
        },
        {
          "indexed": false,
          "internalType": "uint256",
          "name": "royaltyAmount",
          "type": "uint256"
        }
      ],
      "name": "TicketSold",
      "type": "event"
    },
    {
      "stateMutability": "payable",
      "type": "fallback"
    },
    {
      "inputs": [
        {
          "internalType": "uint256",
          "name": "tokenId",
          "type": "uint256"
        }
      ],
      "name": "buyTicket",
      "outputs": [],
      "stateMutability": "payable",
      "type": "function"
    },
    {
      "inputs": [
        {
          "internalType": "uint256",
          "name": "tokenId",
          "type": "uint256"
        }
      ],
      "name": "cancelListing",
      "outputs": [],
      "stateMutability": "nonpayable",
      "type": "function"
    },
    {
      "inputs": [],
      "name": "eventTicketing",
      "outputs": [
        {
          "internalType": "contract IEventTicketing",
          "name": "",
          "type": "address"
        }
      ],
      "stateMutability": "view",
      "type": "function"
    },
    {
      "inputs": [],
      "name": "feeRecipient",
      "outputs": [
        {
          "internalType": "address payable",
          "name": "",
          "type": "address"
        }
      ],
      "stateMutability": "view",
      "type": "function"
    },
    {
      "inputs": [
        {
          "internalType": "uint256",
          "name": "tokenId",
          "type": "uint256"
        }
      ],
      "name": "getListing",
      "outputs": [
        {
          "internalType": "uint256",
          "name": "ticketId_",
          "type": "uint256"
        },
        {
          "internalType": "uint256",
          "name": "tokenId_2",
          "type": "uint256"
        },
        {
          "internalType": "address",
          "name": "seller",
          "type": "address"
        },
        {
          "internalType": "uint256",
          "name": "price",
          "type": "uint256"
        },
        {
          "internalType": "bool",
          "name": "active",
          "type": "bool"
        }
      ],
      "stateMutability": "view",
      "type": "function"
    },
    {
      "inputs": [
        {
          "internalType": "uint256",
          "name": "tokenId",
          "type": "uint256"
        },
        {
          "internalType": "uint256",
          "name": "price",
          "type": "uint256"
        }
      ],
      "name": "listTicket",
      "outputs": [],
      "stateMutability": "nonpayable",
      "type": "function"
    },
    {
      "inputs": [
        {
          "internalType": "uint256",
          "name": "",
          "type": "uint256"
        }
      ],
      "name": "listings",
      "outputs": [
        {
          "internalType": "uint256",
          "name": "ticketId",
          "type": "uint256"
        },
        {
          "internalType": "uint256",
          "name": "tokenId",
          "type": "uint256"
        },
        {
          "internalType": "address",
          "name": "seller",
          "type": "address"
        },
        {
          "internalType": "uint256",
          "name": "price",
          "type": "uint256"
        },
        {
          "internalType": "bool",
          "name": "active",
          "type": "bool"
        }
      ],
      "stateMutability": "view",
      "type": "function"
    },
    {
      "inputs": [],
      "name": "maxPrice",
      "outputs": [
        {
          "internalType": "uint256",
          "name": "",
          "type": "uint256"
        }
      ],
      "stateMutability": "view",
      "type": "function"
    },
    {
      "inputs": [],
      "name": "owner",
      "outputs": [
        {
          "internalType": "address",
          "name": "",
          "type": "address"
        }
      ],
      "stateMutability": "view",
      "type": "function"
    },
    {
      "inputs": [],
      "name": "royaltyBps",
      "outputs": [
        {
          "internalType": "uint16",
          "name": "",
          "type": "uint16"
        }
      ],
      "stateMutability": "view",
      "type": "function"
    },
    {
      "inputs": [
        {
          "internalType": "address payable",
          "name": "newRecipient",
          "type": "address"
        }
      ],
      "name": "setFeeRecipient",
      "outputs": [],
      "stateMutability": "nonpayable",
      "type": "function"
    },
    {
      "inputs": [
        {
          "internalType": "uint256",
          "name": "newMaxPrice",
          "type": "uint256"
        }
      ],
      "name": "setMaxPrice",
      "outputs": [],
      "stateMutability": "nonpayable",
      "type": "function"
    },
    {
      "inputs": [
        {
          "internalType": "uint16",
          "name": "newRoyaltyBps",
          "type": "uint16"
        }
      ],
      "name": "setRoyalty",
      "outputs": [],
      "stateMutability": "nonpayable",
      "type": "function"
    },
    {
      "inputs": [],
      "name": "ticketNft",
      "outputs": [
        {
          "internalType": "contract IERC721",
          "name": "",
          "type": "address"
        }
      ],
      "stateMutability": "view",
      "type": "function"
    },
    {
      "inputs": [
        {
          "internalType": "address",
          "name": "newOwner",
          "type": "address"
        }
      ],
      "name": "transferOwnership",
      "outputs": [],
      "stateMutability": "nonpayable",
      "type": "function"
    },
    {
      "stateMutability": "payable",
      "type": "receive"
    }
  ],
  "bytecode": "0x6080346200014c57601f6200135038819003918201601f19168301916001600160401b0383118484101762000151578084926080946040528339810103126200014c576200004d8162000167565b6200005b6020830162000167565b604083015190926001600160a01b039182811691908290036200014c57606001519061ffff8216938483036200014c576001600055683635c9adc5dea000006005558316938415801562000141575b801562000138575b620001265761271010620001145760018060a01b0319933385600154161760015584600254161760025560035493600454161760045561ffff60a01b9060a01b1692169060018060b01b03191617176003556040516111d390816200017d8239f35b60405163e0e54ced60e01b8152600490fd5b60405163d92e233d60e01b8152600490fd5b508115620000b2565b5083861615620000aa565b600080fd5b634e487b7160e01b600052604160045260246000fd5b51906001600160a01b03821682036200014c5756fe608060409080825260049081361015610090575b5060206064923615610053575162461bcd60e51b815291820152601460248201527314995cd85b194e881a5b9d985b1a590818d85b1b60621b6044820152fd5b5162461bcd60e51b815291820152601c60248201527f526573616c653a2073656e6420766961206275795469636b65742829000000006044820152fd5b600090813560e01c908163107a274a14610f6457508063305a67a814610eac578063305a905a14610b0b57806336e79a5a14610a305780634690484014610a075780636188c42d146109de57806367dd74ca1461046d5780638da5cb5b14610444578063c63adb2b1461041e578063de74e57b146103ab578063e09b2a6214610382578063e38d6b5c1461035f578063e74b981b146102b6578063f2fde38b146101f25763f43952e3036100135791346101ee5760203660031901126101ee57600154823592906001600160a01b031633036101e057821561019e5750816020917f202e0ba938a78b3edea663296e8a06054c65df48fc652817d1e4231351a4c1e29360055551908152a180f35b6020606492519162461bcd60e51b8352820152601d60248201527f526573616c653a206d6178207072696365206d757374206265203e20300000006044820152fd5b90516330cd747160e01b8152fd5b8280fd5b509190346101ee5760203660031901126101ee576001600160a01b038135818116939192908490036102b257600154928316918233036102a557841561026b57505082907f8be0079c531659141344cd1fd0a4f28419497f9722a3daafe3b4186f6b6457e08580a36001600160a01b0319161760015580f35b906020606492519162461bcd60e51b83528201526014602482015273526573616c653a207a65726f206164647265737360601b6044820152fd5b516330cd747160e01b8152fd5b8480fd5b509190346101ee5760203660031901126101ee5780356001600160a01b0381811693918490036102b2576001541633036102a5578215610328575080546001600160a01b031916821790557f7a7b5a0a132f9e0581eb8527f66eae9ee89c2a3e79d4ac7e41a1f1f4d48a7fc28280a280f35b906020606492519162461bcd60e51b835282015260116024820152702932b9b0b6329d103d32b9379030b2323960791b6044820152fd5b50823461037e578160031936011261037e576020906005549051908152f35b5080fd5b50823461037e578160031936011261037e5760035490516001600160a01b039091168152602090f35b5082903461041b57602036600319011261041b57823581526006602090815290829020805460018201546002830154600384015493909601549451918252928101929092526001600160a01b039093166040820152606081019290925260ff161515608082015260a090f35b0390f35b80fd5b50823461037e578160031936011261037e5760209061ffff60035460a01c169051908152f35b50823461037e578160031936011261037e5760015490516001600160a01b039091168152602090f35b5090602092836003193601126101ee5781359360028454146109d057600284558484526006815281842090838201928354936104ab60ff86166110f9565b60038401549586341061098d5760028501805490966001600160a01b0393909184169033821461095257846002541692885488885180968193632e31150760e11b83528983015260249788915afa908115610881576105169160ff918f91610925575b5016156110ad565b85600354168d8851906331a9108f60e11b82528782015289818781855afa9081156108ba5785918f918a9291610908575b5016036108c657875163e985e9c560e01b81526001600160a01b0385168782019081523060208201529091908a90839081906040010381845afa9182156108ba578f8f918c929461088b575b50831561081e575b505050156107dc5760ff191690556003549061ffff8260a01c16808b02908b8204148b1517156107ca579a809c866105de6127108e9f9e9b9c9d9e04809b61113a565b941692833b156101ee57606490838a519586948593632142170760e11b85528b850152338a85015260448401525af180156107c057610794575b508a9086610732575b806106d1575b5050883411610679575b5050917ffffc3deb35aa9e4517f4b252905c151b319d34187db6992abdc3dcd1b0ae382d93916060936001870154965497541697815193338552840152820152a46001815580f35b898080806106878d3461113a565b335af161069261115d565b5061063157835162461bcd60e51b81529182018690526015908201527414995cd85b194e881c99599d5b990819985a5b1959605a1b6044820152606490fd5b81808092878d54165af16106e361115d565b50156106f0578938610627565b835162461bcd60e51b8152918201869052601e908201527f526573616c653a2073656c6c6572207472616e73666572206661696c656400006044820152606490fd5b9080808089888854165af161074561115d565b5015610752578a90610621565b845162461bcd60e51b8152808401889052601f818401527f526573616c653a20726f79616c7479207472616e73666572206661696c6564006044820152606490fd5b67ffffffffffffffff819c929c116107af5785529938610618565b50634e487b7160e01b815260418352fd5b86513d8e823e3d90fd5b634e487b7160e01b8c5260118552838cfd5b865162461bcd60e51b81528086018990526018818601527f526573616c653a20617070726f76616c206d697373696e6700000000000000006044820152606490fd5b90919250868a518094819363020604bf60e21b83528b8301525afa908115610881578d91610854575b508616301438898f61059b565b6108749150893d8b1161087a575b61086c8183611036565b810190611058565b38610847565b503d610862565b88513d8f823e3d90fd5b6108ac919450823d84116108b3575b6108a48183611036565b81019061107c565b9238610593565b503d61089a565b8e8a51903d90823e3d90fd5b875162461bcd60e51b81528087018a9052601e818701527f526573616c653a2073656c6c6572206e6f206c6f6e676572206f776e657200006044820152606490fd5b61091f91508c8d3d1061087a5761086c8183611036565b38610547565b61094591508b3d8d1161094b575b61093d8183611036565b810190611094565b3861050e565b503d610933565b855162461bcd60e51b81528085018890526015602482015274526573616c653a2073656c6620707572636861736560581b6044820152606490fd5b825162461bcd60e51b8152908101849052601c60248201527f526573616c653a20696e73756666696369656e74207061796d656e74000000006044820152606490fd5b5051633ee5aeb560e01b8152fd5b50823461037e578160031936011261037e5760025490516001600160a01b039091168152602090f35b509190346101ee57826003193601126101ee575490516001600160a01b03909116815260209150f35b5091346101ee5760203660031901126101ee57813561ffff8116928382036102b2576001546001600160a01b03163303610afd576127108411610aba57506003805461ffff60a01b191660a09290921b61ffff60a01b16919091179055519081527fda0fdc743bf03c626bcac6e6509af1b15dfa6dabfde58682f6706b85efa9f9b490602090a180f35b606490602084519162461bcd60e51b8352820152601860248201527f526573616c653a20726f79616c747920746f6f206869676800000000000000006044820152fd5b82516330cd747160e01b8152fd5b5091346101ee57806003193601126101ee57813560249283359283151580610ea0575b15610e665760035481516331a9108f60e11b8152808401859052602093916001600160a01b03919082169085818a81855afa908115610dec578a91610e49575b508233911603610e1357835163e985e9c560e01b8152338482019081523060208201528690829081906040010381855afa908115610dec578a91610df6575b508015610d9d575b15610d64578589526006855260ff83858b20015416610d29579188918585948a98979651988980926333355e0b60e11b82528a878301525afa968715610cf0578397610cfa575b5084816002541685519a8b8092632e31150760e11b82528b878301525afa988915610cf05760ff7f8b84647ec667515d9ce59e74ab9bb64476ec404345ebb9dfc3ea275bb6d8ee9b9798999a610c5a928691610cd9575016156110ad565b835190610c6682611004565b888252858201908882528583019033825260608401928c8452876080860197600189528c815260068b522094518555516001850155600284019151166bffffffffffffffffffffffff60a01b825416179055516003820155019051151560ff80198354169116179055519485523394a480f35b6109459150883d8a1161094b5761093d8183611036565b84513d85823e3d90fd5b9096508481813d8311610d22575b610d128183611036565b810103126101ee57519538610bfc565b503d610d08565b835162461bcd60e51b81528084018690526016818a01527514995cd85b194e88185b1c9958591e481b1a5cdd195960521b6044820152606490fd5b835162461bcd60e51b81528084018690526014818a01527314995cd85b194e881b9bdd08185c1c1c9bdd995960621b6044820152606490fd5b50835163020604bf60e21b815283810187905285818a81855afa908115610dec578a91610dcf575b5082163014610bb5565b610de69150863d881161087a5761086c8183611036565b38610dc5565b85513d8c823e3d90fd5b610e0d9150863d88116108b3576108a48183611036565b38610bad565b835162461bcd60e51b81528084018690526011818a0152702932b9b0b6329d103737ba1037bbb732b960791b6044820152606490fd5b610e609150863d881161087a5761086c8183611036565b38610b6e565b906015856020606494519362461bcd60e51b855284015282015274526573616c653a20696e76616c696420707269636560581b6044820152fd5b50600554841115610b2e565b5091346101ee5760203660031901126101ee5781359182845260066020528184209080820190815490610ee160ff83166110f9565b60028401546001600160a01b03163303610f2c575060ff19169055549051918383527f8b84647ec667515d9ce59e74ab9bb64476ec404345ebb9dfc3ea275bb6d8ee9b60203394a480f35b606490602086519162461bcd60e51b835282015260126024820152712932b9b0b6329d103737ba1039b2b63632b960711b6044820152fd5b8484843461041b57602036600319011261041b5781836080926104179435815260066020522090610f9486611004565b81549485875260018301549687602082015260ff60018060a01b0360028601541693848484015260038601549586606085015201541615159485910152519586958693909594919260809360a08601978652602086015260018060a01b0316604085015260608401521515910152565b60a0810190811067ffffffffffffffff82111761102057604052565b634e487b7160e01b600052604160045260246000fd5b90601f8019910116810190811067ffffffffffffffff82111761102057604052565b9081602091031261107757516001600160a01b03811681036110775790565b600080fd5b90816020910312611077575180151581036110775790565b90816020910312611077575160ff811681036110775790565b156110b457565b60405162461bcd60e51b815260206004820152601a60248201527f526573616c653a206576656e74206e6f74207570636f6d696e670000000000006044820152606490fd5b1561110057565b60405162461bcd60e51b815260206004820152601260248201527114995cd85b194e881b9bdd081b1a5cdd195960721b6044820152606490fd5b9190820391821161114757565b634e487b7160e01b600052601160045260246000fd5b3d15611198573d9067ffffffffffffffff8211611020576040519161118c601f8201601f191660200184611036565b82523d6000602084013e565b60609056fea26469706673582212208d8fd4d7b64e7980d39a004bbc9a9f252f5934d0fa97c42624ed552435b736cc64736f6c63430008140033",
  "linkReferences": {},
  "deployedLinkReferences": {}
}