{
  "_format": "hh-sol-artifact-1",
  "contractName": "EventTicketing",
  "sourceName": "contracts/EventTicketing.sol",
  "abi": [
    {
      "inputs": [
        {
          "internalType": "address",
          "name": "ticketNftAddress",
          "type": "address"
        },
        {
          "internalType": "address payable",
          "name": "feeRecipient_",
          "type": "address"
        },
        {
          "internalType": "uint16",
          "name": "feeBps",
          "type": "uint16"
        }
      ],
      "stateMutability": "nonpayable",
      "type": "constructor"
    },
    {
      "inputs": [],
      "name": "AlreadyRegistered",
      "type": "error"
    },
    {
      "inputs": [],
      "name": "EventCanceled",
      "type": "error"
    },
    {
      "inputs": [],
      "name": "EventClosed",
      "type": "error"
    },
    {
      "inputs": [],
      "name": "EventNotCanceled",
      "type": "error"
    },
    {
      "inputs": [],
      "name": "EventNotFound",
      "type": "error"
    },
    {
      "inputs": [],
      "name": "EventNotPassed",
      "type": "error"
    },
    {
      "inputs": [],
      "name": "EventStarted",
      "type": "error"
    },
    {
      "inputs": [],
      "name": "InvalidCall",
      "type": "error"
    },
    {
      "inputs": [],
      "name": "InvalidDescription",
      "type": "error"
    },
    {
      "inputs": [
        {
          "internalType": "uint256",
          "name": "feeBps",
          "type": "uint256"
        }
      ],
      "name": "InvalidFee",
      "type": "error"
    },
    {
      "inputs": [],
      "name": "InvalidLocation",
      "type": "error"
    },
    {
      "inputs": [],
      "name": "InvalidMaxSupply",
      "type": "error"
    },
    {
      "inputs": [],
      "name": "InvalidName",
      "type": "error"
    },
    {
      "inputs": [
        {
          "internalType": "uint256",
          "name": "expected",
          "type": "uint256"
        },
        {
          "internalType": "uint256",
          "name": "actual",
          "type": "uint256"
        }
      ],
      "name": "InvalidPaymentAmount",
      "type": "error"
    },
    {
      "inputs": [],
      "name": "InvalidPrice",
      "type": "error"
    },
    {
      "inputs": [],
      "name": "InvalidTimestamp",
      "type": "error"
    },
    {
      "inputs": [],
      "name": "NotAuthorized",
      "type": "error"
    },
    {
      "inputs": [],
      "name": "NothingToRefund",
      "type": "error"
    },
    {
      "inputs": [],
      "name": "OnlyCreator",
      "type": "error"
    },
    {
      "inputs": [
        {
          "internalType": "address",
          "name": "owner",
          "type": "address"
        }
      ],
      "name": "OwnableInvalidOwner",
      "type": "error"
    },
    {
      "inputs": [
        {
          "internalType": "address",
          "name": "account",
          "type": "address"
        }
      ],
      "name": "OwnableUnauthorizedAccount",
      "type": "error"
    },
    {
      "inputs": [],
      "name": "ProceedsAlreadyWithdrawn",
      "type": "error"
    },
    {
      "inputs": [],
      "name": "ReentrancyGuardReentrantCall",
      "type": "error"
    },
    {
      "inputs": [],
      "name": "SoldOut",
      "type": "error"
    },
    {
      "inputs": [],
      "name": "ZeroAddress",
      "type": "error"
    },
    {
      "anonymous": false,
      "inputs": [
        {
          "indexed": true,
          "internalType": "address",
          "name": "newRecipient",
          "type": "address"
        }
      ],
      "name": "FeeRecipientUpdated",
      "type": "event"
    },
    {
      "anonymous": false,
      "inputs": [
        {
          "indexed": true,
          "internalType": "uint256",
          "name": "ticketId",
          "type": "uint256"
        },
        {
          "indexed": false,
          "internalType": "uint256",
          "name": "newMaxSupply",
          "type": "uint256"
        }
      ],
      "name": "MaxSupplyUpdated",
      "type": "event"
    },
    {
      "anonymous": false,
      "inputs": [
        {
          "indexed": true,
          "internalType": "address",
          "name": "previousOwner",
          "type": "address"
        },
        {
          "indexed": true,
          "internalType": "address",
          "name": "newOwner",
          "type": "address"
        }
      ],
      "name": "OwnershipTransferred",
      "type": "event"
    },
    {
      "anonymous": false,
      "inputs": [
        {
          "indexed": true,
          "internalType": "uint256",
          "name": "ticketId",
          "type": "uint256"
        },
        {
          "indexed": true,
          "internalType": "address",
          "name": "creator",
          "type": "address"
        },
        {
          "indexed": false,
          "internalType": "uint256",
          "name": "creatorAmount",
          "type": "uint256"
        },
        {
          "indexed": false,
          "internalType": "uint256",
          "name": "feeAmount",
          "type": "uint256"
        }
      ],
      "name": "ProceedsWithdrawn",
      "type": "event"
    },
    {
      "anonymous": false,
      "inputs": [
        {
          "indexed": true,
          "internalType": "uint256",
          "name": "ticketId",
          "type": "uint256"
        },
        {
          "indexed": true,
          "internalType": "address",
          "name": "user",
          "type": "address"
        },
        {
          "indexed": false,
          "internalType": "uint256",
          "name": "amount",
          "type": "uint256"
        }
      ],
      "name": "RefundClaimed",
      "type": "event"
    },
    {
      "anonymous": false,
      "inputs": [
        {
          "indexed": true,
          "internalType": "uint256",
          "name": "ticketId",
          "type": "uint256"
        },
        {
          "indexed": true,
          "internalType": "address",
          "name": "registrant",
          "type": "address"
        },
        {
          "indexed": false,
          "internalType": "uint256",
          "name": "nftTokenId",
          "type": "uint256"
        }
      ],
      "name": "Registered",
      "type": "event"
    },
    {
      "anonymous": false,
      "inputs": [
        {
          "indexed": false,
          "internalType": "uint16",
          "name": "newFeeBps",
          "type": "uint16"
        }
      ],
      "name": "ServiceFeeUpdated",
      "type": "event"
    },
    {
      "anonymous": false,
      "inputs": [
        {
          "indexed": true,
          "internalType": "uint256",
          "name": "ticketId",
          "type": "uint256"
        },
        {
          "indexed": true,
          "internalType": "address",
          "name": "canceledBy",
          "type": "address"
        }
      ],
      "name": "TicketCanceled",
      "type": "event"
    },
    {
      "anonymous": false,
      "inputs": [
        {
          "indexed": true,
          "internalType": "uint256",
          "name": "ticketId",
          "type": "uint256"
        },
        {
          "indexed": true,
          "internalType": "address",
          "name": "closedBy",
          "type": "address"
        }
      ],
      "name": "TicketClosed",
      "type": "event"
    },
    {
      "anonymous": false,
      "inputs": [
        {
          "indexed": true,
          "internalType": "uint256",
          "name": "ticketId",
          "type": "uint256"
        },
        {
          "indexed": true,
          "internalType": "address",
          "name": "creator",
          "type": "address"
        },
        {
          "indexed": false,
          "internalType": "uint256",
          "name": "price",
          "type": "uint256"
        },
        {
          "indexed": false,
          "internalType": "string",
          "name": "eventName",
          "type": "string"
        },
        {
          "indexed": false,
          "internalType": "string",
          "name": "description",
          "type": "string"
        },
        {
          "indexed": false,
          "internalType": "uint256",
          "name": "eventTimestamp",
          "type": "uint256"
        },
        {
          "indexed": false,
          "internalType": "uint256",
          "name": "maxSupply",
          "type": "uint256"
        }
      ],
      "name": "TicketCreated",
      "type": "event"
    },
    {
      "anonymous": false,
      "inputs": [
        {
          "indexed": true,
          "internalType": "uint256",
          "name": "ticketId",
          "type": "uint256"
        },
        {
          "indexed": false,
          "internalType": "uint256",
          "name": "newPrice",
          "type": "uint256"
        },
        {
          "indexed": false,
          "internalType": "uint256",
          "name": "newTimestamp",
          "type": "uint256"
        },
        {
          "indexed": false,
          "internalType": "string",
          "name": "newLocation",
          "type": "string"
        }
      ],
      "name": "TicketUpdated",
      "type": "event"
    },
    {
      "stateMutability": "payable",
      "type": "fallback"
    },
    {
      "inputs": [
        {
          "internalType": "uint256",
          "name": "ticketId",
          "type": "uint256"
        }
      ],
      "name": "cancelTicket",
      "outputs": [],
      "stateMutability": "nonpayable",
      "type": "function"
    },
    {
      "inputs": [
        {
          "internalType": "uint256",
          "name": "ticketId",
          "type": "uint256"
        }
      ],
      "name": "claimRefund",
      "outputs": [],
      "stateMutability": "nonpayable",
      "type": "function"
    },
    {
      "inputs": [
        {
          "internalType": "uint256",
          "name": "ticketId",
          "type": "uint256"
        }
      ],
      "name": "closeTicket",
      "outputs": [],
      "stateMutability": "nonpayable",
      "type": "function"
    },
    {
      "inputs": [
        {
          "internalType": "uint256",
          "name": "price",
          "type": "uint256"
        },
        {
          "internalType": "string",
          "name": "eventName",
          "type": "string"
        },
        {
          "internalType": "string",
          "name": "description",
          "type": "string"
        },
        {
          "internalType": "uint256",
          "name": "eventTimestamp",
          "type": "uint256"
        },
        {
          "internalType": "uint256",
          "name": "maxSupply",
          "type": "uint256"
        },
        {
          "internalType": "string",
          "name": "metadata",
          "type": "string"
        },
        {
          "internalType": "string",
          "name": "location",
          "type": "string"
        }
      ],
      "name": "createTicket",
      "outputs": [
        {
          "internalType": "uint256",
          "name": "newId",
          "type": "uint256"
        }
      ],
      "stateMutability": "nonpayable",
      "type": "function"
    },
    {
      "inputs": [],
      "name": "feeRecipient",
      "outputs": [
        {
          "internalType": "address payable",
          "name": "",
          "type": "address"
        }
      ],
      "stateMutability": "view",
      "type": "function"
    },
    {
      "inputs": [
        {
          "internalType": "uint256",
          "name": "ticketId",
          "type": "uint256"
        }
      ],
      "name": "finalizeEvent",
      "outputs": [],
      "stateMutability": "nonpayable",
      "type": "function"
    },
    {
      "inputs": [],
      "name": "getRecentTickets",
      "outputs": [
        {
          "components": [
            {
              "internalType": "uint256",
              "name": "id",
              "type": "uint256"
            },
            {
              "internalType": "address payable",
              "name": "creator",
              "type": "address"
            },
            {
              "internalType": "uint256",
              "name": "price",
              "type": "uint256"
            },
            {
              "internalType": "string",
              "name": "eventName",
              "type": "string"
            },
            {
              "internalType": "string",
              "name": "description",
              "type": "string"
            },
            {
              "internalType": "uint256",
              "name": "eventTimestamp",
              "type": "uint256"
            },
            {
              "internalType": "string",
              "name": "location",
              "type": "string"
            },
            {
              "internalType": "bool",
              "name": "closed",
              "type": "bool"
            },
            {
              "internalType": "bool",
              "name": "canceled",
              "type": "bool"
            },
            {
              "internalType": "string",
              "name": "metadata",
              "type": "string"
            },
            {
              "internalType": "uint256",
              "name": "maxSupply",
              "type": "uint256"
            },
            {
              "internalType": "uint256",
              "name": "sold",
              "type": "uint256"
            },
            {
              "internalType": "uint256",
              "name": "totalCollected",
              "type": "uint256"
            },
            {
              "internalType": "uint256",
              "name": "totalRefunded",
              "type": "uint256"
            },
            {
              "internalType": "bool",
              "name": "proceedsWithdrawn",
              "type": "bool"
            }
          ],
          "internalType": "struct EventTicketingLib.Ticket[]",
          "name": "",
          "type": "tuple[]"
        }
      ],
      "stateMutability": "view",
      "type": "function"
    },
    {
      "inputs": [
        {
          "internalType": "uint256",
          "name": "ticketId",
          "type": "uint256"
        }
      ],
      "name": "getRegistrants",
      "outputs": [
        {
          "internalType": "address[]",
          "name": "",
          "type": "address[]"
        }
      ],
      "stateMutability": "view",
      "type": "function"
    },
    {
      "inputs": [
        {
          "internalType": "uint256",
          "name": "ticketId",
          "type": "uint256"
        }
      ],
      "name": "getStatus",
      "outputs": [
        {
          "internalType": "enum EventTicketing.Status",
          "name": "",
          "type": "uint8"
        }
      ],
      "stateMutability": "view",
      "type": "function"
    },
    {
      "inputs": [],
      "name": "getTotalTickets",
      "outputs": [
        {
          "internalType": "uint256",
          "name": "",
          "type": "uint256"
        }
      ],
      "stateMutability": "view",
      "type": "function"
    },
    {
      "inputs": [
        {
          "internalType": "uint256",
          "name": "ticketId",
          "type": "uint256"
        }
      ],
      "name": "isAvailable",
      "outputs": [
        {
          "internalType": "bool",
          "name": "",
          "type": "bool"
        }
      ],
      "stateMutability": "view",
      "type": "function"
    },
    {
      "inputs": [
        {
          "internalType": "uint256",
          "name": "",
          "type": "uint256"
        },
        {
          "internalType": "address",
          "name": "",
          "type": "address"
        }
      ],
      "name": "isRegistered",
      "outputs": [
        {
          "internalType": "bool",
          "name": "",
          "type": "bool"
        }
      ],
      "stateMutability": "view",
      "type": "function"
    },
    {
      "inputs": [],
      "name": "owner",
      "outputs": [
        {
          "internalType": "address",
          "name": "",
          "type": "address"
        }
      ],
      "stateMutability": "view",
      "type": "function"
    },
    {
      "inputs": [
        {
          "internalType": "uint256",
          "name": "",
          "type": "uint256"
        },
        {
          "internalType": "address",
          "name": "",
          "type": "address"
        }
      ],
      "name": "paidAmount",
      "outputs": [
        {
          "internalType": "uint256",
          "name": "",
          "type": "uint256"
        }
      ],
      "stateMutability": "view",
      "type": "function"
    },
    {
      "inputs": [],
      "name": "platformFeeBps",
      "outputs": [
        {
          "internalType": "uint16",
          "name": "",
          "type": "uint16"
        }
      ],
      "stateMutability": "view",
      "type": "function"
    },
    {
      "inputs": [
        {
          "internalType": "uint256",
          "name": "ticketId",
          "type": "uint256"
        }
      ],
      "name": "register",
      "outputs": [
        {
          "internalType": "uint256",
          "name": "nftTokenId",
          "type": "uint256"
        }
      ],
      "stateMutability": "payable",
      "type": "function"
    },
    {
      "inputs": [],
      "name": "renounceOwnership",
      "outputs": [],
      "stateMutability": "nonpayable",
      "type": "function"
    },
    {
      "inputs": [
        {
          "internalType": "address payable",
          "name": "newRecipient",
          "type": "address"
        }
      ],
      "name": "setFeeRecipient",
      "outputs": [],
      "stateMutability": "nonpayable",
      "type": "function"
    },
    {
      "inputs": [
        {
          "internalType": "uint16",
          "name": "feeBps",
          "type": "uint16"
        }
      ],
      "name": "setServiceFee",
      "outputs": [],
      "stateMutability": "nonpayable",
      "type": "function"
    },
    {
      "inputs": [
        {
          "internalType": "address",
          "name": "ticketNftAddress",
          "type": "address"
        }
      ],
      "name": "setTicketNft",
      "outputs": [],
      "stateMutability": "nonpayable",
      "type": "function"
    },
    {
      "inputs": [],
      "name": "ticketNft",
      "outputs": [
        {
          "internalType": "contract ITicketNft",
          "name": "",
          "type": "address"
        }
      ],
      "stateMutability": "view",
      "type": "function"
    },
    {
      "inputs": [
        {
          "internalType": "uint256",
          "name": "",
          "type": "uint256"
        }
      ],
      "name": "tickets",
      "outputs": [
        {
          "internalType": "uint256",
          "name": "id",
          "type": "uint256"
        },
        {
          "internalType": "address payable",
          "name": "creator",
          "type": "address"
        },
        {
          "internalType": "uint256",
          "name": "price",
          "type": "uint256"
        },
        {
          "internalType": "string",
          "name": "eventName",
          "type": "string"
        },
        {
          "internalType": "string",
          "name": "description",
          "type": "string"
        },
        {
          "internalType": "uint256",
          "name": "eventTimestamp",
          "type": "uint256"
        },
        {
          "internalType": "string",
          "name": "location",
          "type": "string"
        },
        {
          "internalType": "bool",
          "name": "closed",
          "type": "bool"
        },
        {
          "internalType": "bool",
          "name": "canceled",
          "type": "bool"
        },
        {
          "internalType": "string",
          "name": "metadata",
          "type": "string"
        },
        {
          "internalType": "uint256",
          "name": "maxSupply",
          "type": "uint256"
        },
        {
          "internalType": "uint256",
          "name": "sold",
          "type": "uint256"
        },
        {
          "internalType": "uint256",
          "name": "totalCollected",
          "type": "uint256"
        },
        {
          "internalType": "uint256",
          "name": "totalRefunded",
          "type": "uint256"
        },
        {
          "internalType": "bool",
          "name": "proceedsWithdrawn",
          "type": "bool"
        }
      ],
      "stateMutability": "view",
      "type": "function"
    },
    {
      "inputs": [
        {
          "internalType": "uint256",
          "name": "ticketId",
          "type": "uint256"
        }
      ],
      "name": "ticketsLeft",
      "outputs": [
        {
          "internalType": "uint256",
          "name": "",
          "type": "uint256"
        }
      ],
      "stateMutability": "view",
      "type": "function"
    },
    {
      "inputs": [
        {
          "internalType": "address",
          "name": "newOwner",
          "type": "address"
        }
      ],
      "name": "transferOwnership",
      "outputs": [],
      "stateMutability": "nonpayable",
      "type": "function"
    },
    {
      "inputs": [
        {
          "internalType": "uint256",
          "name": "ticketId",
          "type": "uint256"
        },
        {
          "internalType": "uint256",
          "name": "newMaxSupply",
          "type": "uint256"
        }
      ],
      "name": "updateMaxSupply",
      "outputs": [],
      "stateMutability": "nonpayable",
      "type": "function"
    },
    {
      "inputs": [
        {
          "internalType": "uint256",
          "name": "ticketId",
          "type": "uint256"
        },
        {
          "internalType": "uint256",
          "name": "newPrice",
          "type": "uint256"
        },
        {
          "internalType": "string",
          "name": "newLocation",
          "type": "string"
        },
        {
          "internalType": "uint256",
          "name": "newEventTimestamp",
          "type": "uint256"
        }
      ],
      "name": "updateTicket",
      "outputs": [],
      "stateMutability": "nonpayable",
      "type": "function"
    },
    {
      "inputs": [
        {
          "internalType": "uint256",
          "name": "ticketId",
          "type": "uint256"
        }
      ],
      "name": "withdrawProceeds",
      "outputs": [],
      "stateMutability": "nonpayable",
      "type": "function"
    },
    {
      "stateMutability": "payable",
      "type": "receive"
    }
  ],
  "bytecode": "0x6080346200016b57601f620024f138819003918201601f191683019291906001600160401b03841183851017620001705781606092849260409687528339810103126200016b5780516001600160a01b0390818116908190036200016b57602083015191808316938484036200016b578501519361ffff85168095036200016b57331562000153576000549160018060a01b03199233848216176000558751913391167f8be0079c531659141344cd1fd0a4f28419497f9722a3daafe3b4186f6b6457e0600080a360018055831562000144575015620001335761271084116200011b5760025416176002556008549062010000600160b01b039060101b169060018060b01b03191617176008555161236a9081620001878239f35b845163179c637760e11b815260048101859052602490fd5b845163d92e233d60e01b8152600490fd5b63d92e233d60e01b8152600490fd5b8551631e4fbdf760e01b815260006004820152602490fd5b600080fd5b634e487b7160e01b600052604160045260246000fdfe608080604052600436101561003a575b5036156100285760405163574b16a760e11b8152600490fd5b60405163574b16a760e11b8152600490fd5b60003560e01c908163017c565514611a0c5750806306e8337f146119ee57806320e14e491461194d57806322dcd13e1461192b578063238e875f146118905780633a178d99146118685780633d914ecd146110ac578063469048401461107f57806350b4471214610f485780635b7baf6414610e855780635c622a0e14610e405780637031ff8014610df8578063710c597314610dd2578063715018a614610d795780637c00e4db14610afa5780638da5cb5b14610ad1578063999a27fe14610a895780639b3e745a14610a065780639b71e673146109a6578063a2be261f1461085d578063b81f6e1814610810578063d9f1aed914610772578063e09b2a6214610749578063e74b981b146106b5578063ee355b1f1461051b578063f207564e146101fe5763f2fde38b14610170573861000f565b346101f95760203660031901126101f957610189611c4a565b610191611c76565b6001600160a01b039081169081156101e057600054826001600160601b0360a01b821617600055167f8be0079c531659141344cd1fd0a4f28419497f9722a3daafe3b4186f6b6457e0600080a3005b604051631e4fbdf760e01b815260006004820152602490fd5b600080fd5b602060031981813601126101f957600435610217611d15565b806000526003835260406000209182541561050957600783015460ff81166104f75760081c60ff166104e557600583019081544210156104d3578260005260058552604060002033600052855260ff604060002054166104c157600a840154600985015411156104af576002840154803403610491575082600052600685526040600020336000528552346040600020558260005260038552600b6040600020016102c3348254611d38565b90558260005260038552600a6040600020018054906001820180921161047b57558260005260048552604060002090815468010000000000000000811015610465576000856103de8996610321856103ba9860018d98018155611d54565b919080549260031b60018060a01b03938433831b921b19161790558385526005895260408520338652895260408520600160ff198254161790555490610381600661037a600461037360038b01611b64565b9901611b64565b9c01611b64565b9060025416966103ca6040519c8d9a8b998a98631b42d6a960e31b8a523360048b015260248a015260c060448a015260c4890190611c0a565b9083888303016064890152611c0a565b9260848601528483030160a4850152611c0a565b03925af19182156104595760009261042a575b50604051908282527f39dd062cc095bf933d83338d8e4591b7eb119264d876f173cacb1cfdf2c9737f843393a360018055604051908152f35b9091508281813d8311610452575b6104428183611b43565b810103126101f9575190836103f1565b503d610438565b6040513d6000823e3d90fd5b634e487b7160e01b600052604160045260246000fd5b634e487b7160e01b600052601160045260246000fd5b604490604051906305dbe7d360e01b82526004820152346024820152fd5b6040516352df9fe560e01b8152600490fd5b604051630ea075bf60e21b8152600490fd5b6040516323d9ec0960e01b8152600490fd5b604051634a4e1d6160e11b8152600490fd5b6040516384b734c360e01b8152600490fd5b604051635add554360e01b8152600490fd5b346101f9576020806003193601126101f95760043590610539611d15565b816000526003908181526040600020928354156105095760018401546001600160a01b0394908516331415806106a7575b61069557600701805460ff8160081c161561065c575b505080600052600482526040600020936009835260406000205493609685019485811161047b578654808711610654575b505b8581106105d25785600986866000525260406000205560018055600080f35b80836105e1610612938a611d54565b905490851b1c1685600052600687526040600020816000528752856040600020548881610617575b50505050611d45565b6105b3565b816106447ff3f402280ef0a7905e124aa621b65eaeb2725c343e8b36d398ed78c29daf285c93868661229f565b604051908152a388858188610609565b9550876105b1565b61ffff191661010117905533817f856f105c150817c7b4994960bcf1ff34f18912db8f0892ae56fb87470c8b9f3f600080a38480610580565b60405163ea8e4eb560e01b8152600490fd5b50846000541633141561056a565b346101f95760203660031901126101f9576004356001600160a01b038116908181036101f9576106e3611c76565b8115610737576008805462010000600160b01b03191660109290921b62010000600160b01b03169190911790557f7a7b5a0a132f9e0581eb8527f66eae9ee89c2a3e79d4ac7e41a1f1f4d48a7fc2600080a2005b60405163d92e233d60e01b8152600490fd5b346101f95760003660031901126101f9576002546040516001600160a01b039091168152602090f35b346101f95760203660031901126101f95760043561078e611d15565b80600052600360205260406000208054156105095760018101546001600160a01b031633036107fe5760ff600782015460081c166104e557600581015442106104d35760ff600d820154166107ec576107e691611d8f565b60018055005b60405163ed56d45760e01b8152600490fd5b6040516308f78f9960e31b8152600490fd5b346101f95760403660031901126101f957610829611c60565b600435600052600560205260406000209060018060a01b0316600052602052602060ff604060002054166040519015158152f35b346101f95760003660031901126101f95761087661202c565b60405160209182820192808352815180945260408301938160408260051b8601019301916000955b8287106108ab5785850386f35b909192938280600192603f1989820301855287519081518152848060a01b038383015116838201526040820151604082015261095d610930610913610900606080870151906101e08091880152860190611c0a565b6080808701519086830390870152611c0a565b60a0808601519085015260c0808601519085830390860152611c0a565b60e0840151151560e084015261010080850151151590840152610120808501519084830390850152611c0a565b916101408082015190830152610160808201519083015261018080820151908301526101a080820151908301526101c0809101511515910152960192019601959291909261089e565b346101f95760203660031901126101f9576004356109c2611d15565b80600052600360205260406000208054156105095760ff600782015460081c166104e557600581015442106104d35760ff600d820154166107ec576107e691611d8f565b346101f95760203660031901126101f95760043561ffff81168091036101f957610a2e611c76565b6127108111610a71576020817fb4c8a49c815aff443d1d27ce1429e4affed0237024410b84729f24d349b80e1a9261ffff196008541617600855604051908152a1005b6024906040519063179c637760e11b82526004820152fd5b346101f95760403660031901126101f957610aa2611c60565b600435600052600660205260406000209060018060a01b03166000526020526020604060002054604051908152f35b346101f95760003660031901126101f9576000546040516001600160a01b039091168152602090f35b346101f95760803660031901126101f9576001600160401b036004356024356044358381116101f957610b31903690600401611ac0565b91906064359284600052602093600385526040600020805415610509576001818101549091906001600160a01b031633036107fe57600781015460ff8160081c166104e55760ff166104f75760058101918254421015610d675742841115610d55578615610d44578415610d32576006610bac368789611cbd565b92886002820155019180519a8b11610465578a610bc98454611aed565b601f8111610ce7575b50508890601f8c11600114610c59579a8080879694610c499a999896947fc23f26eef4d4205025e77d6fc59bd3e912b6e335b222c54f5980d65a8fd5812e9e9f600094610c4e575b50501b916000199060031b1c19161790555b556040519586958652850152606060408501526060840191611cf4565b0390a2005b015192508f80610c1a565b90601f198c1691846000528a6000209260005b818110610cd2575092879694928e927fc23f26eef4d4205025e77d6fc59bd3e912b6e335b222c54f5980d65a8fd5812e9e9f610c499c9b9a989610610cb9575b505050811b019055610c2c565b015160001960f88460031b161c191690558d8080610cac565b83830151855593850193928c01928c01610c6c565b846000528a600020908b601f840160051c83019310610d28575b601f0160051c019083905b828110610d1c57508c9150610bd2565b60008155018390610d0c565b9091508190610d01565b60405163f80f144560e01b8152600490fd5b60405162bfc92160e01b8152600490fd5b60405163b7d0949760e01b8152600490fd5b60405163292403c360e01b8152600490fd5b346101f95760003660031901126101f957610d92611c76565b600080546001600160a01b0319811682556001600160a01b03167f8be0079c531659141344cd1fd0a4f28419497f9722a3daafe3b4186f6b6457e08280a3005b346101f95760203660031901126101f9576020610df0600435611f6d565b604051908152f35b346101f95760203660031901126101f957610e11611c4a565b610e19611c76565b6001600160a01b03168015610737576001600160601b0360a01b6002541617600255600080f35b346101f95760203660031901126101f957610e5c600435611fa7565b6040516004821015610e6f576020918152f35b634e487b7160e01b600052602160045260246000fd5b346101f95760203660031901126101f957600435610ea1611d15565b8060005260036020526040600020805415610509576007015460081c60ff1615610f3657806000526006602052604060002033600052602052604060002054908115610f2457610ef282338361229f565b6040519182527ff3f402280ef0a7905e124aa621b65eaeb2725c343e8b36d398ed78c29daf285c60203393a360018055005b60405163f76aef6560e01b8152600490fd5b6040516301de2a6560e31b8152600490fd5b346101f95760203660031901126101f957600435600052600360205260406000208054600160a01b6001900360018301541691600281015460038201610f8d90611b64565b91610f9a60048201611b64565b60058201549390610fad60068401611b64565b6007840154610fbe60088601611b64565b91600986015497600a87015494600b88015496600c89015498600d015460ff16996040519d8e809e81526020015260408d01528b6101e06060819201528c0161100691611c0a565b8b810360808d015261101791611c0a565b9060a08b015289810360c08b015261102e91611c0a565b9060ff8116151560e08a015260081c60ff16151561010089015287810361012089015261105a91611c0a565b946101408701526101608601526101808501526101a084015215156101c08301520390f35b346101f95760003660031901126101f95760085460405160109190911c6001600160a01b03168152602090f35b346101f95760e03660031901126101f9576024356001600160401b0381116101f9576110dc903690600401611ac0565b906044356001600160401b0381116101f9576110fc903690600401611ac0565b60a4939193356001600160401b0381116101f95761111e903690600401611ac0565b939060c4356001600160401b0381116101f95761113f903690600401611ac0565b9095426064351115610d55576084351561185657851561184457841561183257611197600160075401978860075561118f61117b368a89611cbd565b95611187368a8e611cbd565b943691611cbd565b933691611cbd565b90604051936111a585611b27565b88855233602086015260043560408601526060850152608084015260643560a084015260c0830152600060e083015260006101008301526101208201526084356101408201526000610160820152600061018082015260006101a082015260006101c0820152846000526003602052604060002090805182556001820160018060a01b036020830151166001600160601b0360a01b8254161790556040810151600283015560608101518051906001600160401b03821161046557819061126f6003860154611aed565b601f81116117df575b50602090601f831160011461176d57600092611762575b50508160011b916000199060031b1c19161760038301555b60808101518051906001600160401b0382116104655781906112cc6004860154611aed565b601f811161170f575b50602090601f831160011461169d57600092611692575b50508160011b916000199060031b1c19161760048301555b60a0810151600583015560c08101518051906001600160401b0382116104655781906113336006860154611aed565b601f811161163f575b50602090601f83116001146115cd576000926115c2575b50508160011b916000199060031b1c19161760068301555b6007820161138b60e08301511515829060ff801983541691151516179055565b610100820151815461ff00191690151560081b61ff00161790556101208101518051906001600160401b038211610465576113c96008850154611aed565b601f811161157b575b50918795939160209995938a90601f83116001146114d65793600d6101c061149e95857ff71b42493765497065cfba18b42f5fdcf53336aad1f5ae821f7e3b54482880679b9996611485966114ac9c9a6000926114cb575b50508160011b916000199060031b1c19161760088501555b6101408101516009850155610160810151600a850155610180810151600b8501556101a0810151600c8501550151151591019060ff801983541691151516179055565b60405197600435895260a08b8a015260a0890191611cf4565b918683036040880152611cf4565b92606435606082015260843560808201528033940390a3604051908152f35b01519050388061142a565b90600885016000528b6000209160005b601f198516811061156157506101c061149e95600186611485966114ac9c9a96600d967ff71b42493765497065cfba18b42f5fdcf53336aad1f5ae821f7e3b54482880679f9d9a601f19811610611548575b505050811b016008850155611442565b015160001960f88460031b161c19169055388080611538565b8183015184558c9a50600190930192918d01918d016114e6565b600885016000526020600020601f840160051c8101602085106115bb575b601f830160051c820181106115af5750506113d2565b60008155600101611599565b5080611599565b015190508980611353565b9250600685016000526020600020906000935b601f1984168510611624576001945083601f1981161061160b575b505050811b01600683015561136b565b015160001960f88460031b161c191690558980806115fb565b818101518355602094850194600190930192909101906115e0565b909150600685016000526020600020601f840160051c81016020851061168b575b90849392915b601f830160051c8201811061167c57505061133c565b60008155859450600101611666565b5080611660565b0151905089806112ec565b9250600485016000526020600020906000935b601f19841685106116f4576001945083601f198116106116db575b505050811b016004830155611304565b015160001960f88460031b161c191690558980806116cb565b818101518355602094850194600190930192909101906116b0565b909150600485016000526020600020601f840160051c81016020851061175b575b90849392915b601f830160051c8201811061174c5750506112d5565b60008155859450600101611736565b5080611730565b01519050898061128f565b9250600385016000526020600020906000935b601f19841685106117c4576001945083601f198116106117ab575b505050811b0160038301556112a7565b015160001960f88460031b161c1916905589808061179b565b81810151835560209485019460019093019290910190611780565b909150600385016000526020600020601f840160051c81016020851061182b575b90849392915b601f830160051c8201811061181c575050611278565b60008155859450600101611806565b5080611800565b6040516340132f1f60e01b8152600490fd5b60405163430f13b360e01b8152600490fd5b60405163066f305360e21b8152600490fd5b346101f95760203660031901126101f9576020611886600435611ef7565b6040519015158152f35b346101f95760403660031901126101f95760043560243581600052600360205260406000208054156105095760018101546001600160a01b031633036107fe57600781015460ff8160081c166104e55760ff166104f757600a810154821061185657811561185657817f44ecfc706d63e347851cfd40acfa6cf2e3a41faa3e8b460210c03938e84a91ad9260096020930155604051908152a2005b346101f95760003660031901126101f957602061ffff60085416604051908152f35b346101f95760203660031901126101f9576004358060005260036020526040600020805415610509576001810154336001600160a01b03918216141590816119df575b5061069557600701805460ff81166104f75760ff8160081c166104e55760ff1916600117905533907f6b1b7348ef8c34cb796294e383344baff089786a86c14cd5cd96bb50382d7dfe600080a3005b90506000541633141583611990565b346101f95760003660031901126101f9576020600754604051908152f35b346101f957602090816003193601126101f9576004356000526004825260406000208054808352838301908192600052846000209060005b86828210611aa3578686611a5a82880383611b43565b604051928392818401908285525180915260408401929160005b828110611a8357505050500390f35b83516001600160a01b031685528695509381019392810192600101611a74565b83546001600160a01b031685529093019260019283019201611a44565b9181601f840112156101f9578235916001600160401b0383116101f957602083818601950101116101f957565b90600182811c92168015611b1d575b6020831014611b0757565b634e487b7160e01b600052602260045260246000fd5b91607f1691611afc565b6101e081019081106001600160401b0382111761046557604052565b90601f801991011681019081106001600160401b0382111761046557604052565b9060405191826000825492611b7884611aed565b908184526001948581169081600014611be75750600114611ba4575b5050611ba292500383611b43565b565b9093915060005260209081600020936000915b818310611bcf575050611ba293508201013880611b94565b85548884018501529485019487945091830191611bb7565b915050611ba294506020925060ff191682840152151560051b8201013880611b94565b919082519283825260005b848110611c36575050826000602080949584010152601f8019910116010190565b602081830181015184830182015201611c15565b600435906001600160a01b03821682036101f957565b602435906001600160a01b03821682036101f957565b6000546001600160a01b03163303611c8a57565b60405163118cdaa760e01b8152336004820152602490fd5b6001600160401b03811161046557601f01601f191660200190565b929192611cc982611ca2565b91611cd76040519384611b43565b8294818452818301116101f9578281602093846000960137010152565b908060209392818452848401376000828201840152601f01601f1916010190565b600260015414611d26576002600155565b604051633ee5aeb560e01b8152600490fd5b9190820180921161047b57565b600019811461047b5760010190565b8054821015611d6c5760005260206000200190600090565b634e487b7160e01b600052603260045260246000fd5b9190820391821161047b57565b611da2600b830154600c84015490611d82565b9161ffff6008541680840290848204148415171561047b57612710611dc991048094611d82565b600d8201805460ff191660011790556008546001600160a01b039290859060101c841681611e9e575b50506001018281541682611e38575b50907ff267235ebfb630032a6a04de47e34751541c9a48e736f5c5ae79cbb519cbbd529260409254169482519182526020820152a3565b600080808581949695965af1611e4c61226f565b5015611e59579038611e01565b60405162461bcd60e51b815260206004820152601760248201527f63726561746f72207472616e73666572206661696c65640000000000000000006044820152606490fd5b600080809381935af1611eaf61226f565b5015611ebc578438611df2565b60405162461bcd60e51b8152602060048201526013602482015272199959481d1c985b9cd9995c8819985a5b1959606a1b6044820152606490fd5b600052600360205260406000208054158015611f5f575b8015611f4e575b8015611f40575b611f3a576009600a8201549101541115611f3557600190565b600090565b50600090565b506005810154421015611f1c565b5060ff600782015460081c16611f15565b5060ff600782015416611f0e565b60005260036020526040600020805415611f3a576009600a8201549101549081811015611fa057611f9d91611d82565b90565b5050600090565b6000526003602052604060002080541561050957600781015460ff8160081c16611ffa5760ff16611fe8575b60050154421015611fe357600090565b600190565b6005810154421015611fd35750600390565b5050600290565b6001600160401b0381116104655760051b60200190565b8051821015611d6c5760209160051b010190565b60078054801561224a5760648111908115612243576064915b1561223a5760631981019080821161047b576062190180911161047b57915b61206d82612001565b9260409061207d82519586611b43565b838552601f1961208c85612001565b0160005b8181106121b957505060005b8481106120ab57505050505090565b806120b96121b49284611d38565b60005260036020908082526120fe86600020918751936120d885611b27565b8354855260018401546001600160a01b0316908501526002830154888501528201611b64565b606083015261210f60048201611b64565b6080830152600581015460a083015261212a60068201611b64565b60c0830152600d878201549161215c60ff93848116151560e087015284600891821c1615156101008701528201611b64565b6101208501526009810154610140850152600a810154610160850152600b810154610180850152600c8101546101a085015201541615156101c08201526121a38289612018565b526121ae8188612018565b50611d45565b61209c565b60209084516121c781611b27565b600081528260008183015260008783015260608080840152806080840152600060a08401528060c0840152600060e0840152600061010084015261012083015260006101408301526000610160830152600061018083015260006101a083015260006101c0830152828a01015201612090565b50600191612064565b8091612045565b5050604051602081018181106001600160401b03821117610465576040526000815290565b3d1561229a573d9061228082611ca2565b9161228e6040519384611b43565b82523d6000602084013e565b606090565b60008093819383839484526006602052604084209160018060a01b03169182855260205283604081205583526003602052600c60408420016122e2838254611d38565b90555af16122ee61226f565b50156122f657565b60405162461bcd60e51b81526020600482015260166024820152751c99599d5b99081d1c985b9cd9995c8819985a5b195960521b6044820152606490fdfea2646970667358221220ef73885856e2fa295608179545fe69e492d57933f82fe6cb7df3dd2a3a4f293164736f6c63430008140033",
  "linkReferences": {},
  "deployedLinkReferences": {}
}